:020000040800F2
:100000000050002021020008290200082D020008EB
:10001000A1020008A5020008ED020008000000008F
:100020000000000000000000000000003503000890
:1000300039030008000000003D030008990E000885
:100040005103000851030008510300085103000840
:100050005103000851030008510300085103000830
:100060005103000851030008510300085103000820
:100070005103000851030008510300085103000810
:100080005103000851030008510300085103000800
:1000900051030008510300085103000851030008F0
:1000A00051030008510300085103000851030008E0
:1000B00051030008510300085103000851030008D0
:1000C00051030008510300085103000851030008C0
:1000D00051030008510300085103000851030008B0
:1000E00051030008510300085103000800000000FC
:1000F0000000000000000000000000000000000000
:1001000000000000000000005FF808F100B583B0B7
:1001100000F048FD304B314A1360314A1360314BD7
:10012000314A03E011681960043304322F498B42CD
:10013000F8D32A4B1A682E4B9A4204D1284B1A68DE
:100140002C4B9A4200D0FEE7234B2B4A13602B4ADC
:1001500013602B4B02E000221A600433294A9342B9
:10016000F9D3254B1B6813B9244B1B6803B1FEE779
:1001700000F024FD01A8694600F0A0FC224C234BAE
:100180001C1BA410002504E01F4B53F82530984792
:100190000135AC42F8DC1E4C1E4B1C1BA410002584
:1001A00004E01B4B53F8253098470135AC42F8DC8E
:1001B0000198009900F0B8FE0546174C174B1C1B20
:1001C000A41004E0013C144B53F824309847002C51
:1001D000F8DC284600F044FCBABADECA0000002071
:1001E0009800002000000020301C00089C00002027
:1001F00078563412325476989C0000203801002042
:100200009C0000203C0100207C0300087C030008C7
:100210007C0300087C0300087C0300087C030008C2
:1002200008B5FFF773FF00BF00BEFEE71EF0040F26
:100230000CBFEFF30880EFF309807146414A104785
:100240002DE9F04182B004468846134B5E6B9D6BEE
:100250009F6A1B6B13F0020F0DD00F4BDB6A002B54
:1002600009DA4BF6AB6100F025FD20B14FF00042FA
:10027000094BDA620CE0094800F034FCCDF800804C
:100280002046394632462B4600F09CFC00BEFEE775
:1002900002B0BDE8F08100BF00ED00E07C1B00086B
:1002A00000BEFEE71EF0040F0CBFEFF30880EFF373
:1002B00009807146244A10472DE9F04182B0074673
:1002C0008846084B5D6B9C6B9E6A074800F00AFCF1
:1002D000CDF80080384631462A46234600F072FCAD
:1002E00000BEFEE700ED00E08C1B00081EF0040FCE
:1002F0000CBFEFF30880EFF309807146134A1047F3
:100300002DE9F04182B007468846084B5D6B9C6B37
:100310009E6A074800F0E6FBCDF80080384631467B
:100320002A46234600F04EFC00BEFEE700ED00E04A
:10033000981B000800BEFEE700BEFEE700BEFEE719
:100340007047000041020008B902000801030008DC
:0403500000BEFEE706
:10035400301C0008000000209C000020301C000815
:1003640000000000000000009C0000203C01002070
:08037400000000000000000081
:10037C00F8B505460C46474B98421BD003F58063F5
:10038C00984217D003F58063984213D003F580632D
:10039C0098420FD003F5806398420BD003F580632D
:1003AC00984207D003F58063984203D03A48B221B3
:1003BC0000F086FBE3788BB1042B0FD0282B0DD0EB
:1003CC00482B0BD0142B09D0102B07D01C2B05D08D
:1003DC00182B03D03048B32100F072FB23881BB9D3
:1003EC002D48B42100F06CFBE37803F00F06304687
:1003FC0013F0100F0AD0A378013BDBB2022B03D908
:10040C002548BB2100F05CFBA07830432378E3B196
:10041C002E68002216E0012393402188194099424E
:10042C000FD197000F21B94026EA010600FA07F117
:10043C000E43E178282901D16B6102E0482900D1F3
:10044C002B610132072AE6D92E602388FF2B20D995
:10045C006F6800211AE001F1080201239340228801
:10046C001A409A4211D14FEA810E0F2202FA0EF66F
:10047C0027EA060200FA0EF71743E278282A00D181
:10048C006B61E278482A00D12B6101310729E2D94E
:10049C006F60F8BD000801401C1900084FF6FF738F
:1004AC000380022383700423C370704738B504465D
:1004BC000D462A4B98421CD003F58063984218D005
:1004CC0003F58063984214D003F58063984210D0F2
:1004DC0003F5806398420CD003F58063984208D0F2
:1004EC0003F58063984204D01D484FF48F7100F0DF
:1004FC00E7FA6B1E9BB2012B28D9042D26D0082DB0
:10050C0024D0102D22D0202D20D0402D1ED0802D77
:10051C001CD0B5F5807F19D0B5F5007F16D0B5F598
:10052C00806F13D0B5F5006F10D0B5F5805F0DD08E
:10053C00B5F5005F0AD0B5F5804F07D0B5F5004F83
:10054C0004D0074840F21F1100F0BAFAA3682B42FE
:10055C0001D0012038BD002038BD00BF000801408B
:10056C001C19000870B504460D4616462C4B9842D3
:10057C001CD003F58063984218D003F58063984231
:10058C0014D003F58063984210D003F58063984231
:10059C000CD003F58063984208D003F58063984231
:1005AC0004D0204840F28D1100F08AFA6B1E9BB2E9
:1005BC00012B28D9042D26D0082D24D0102D22D083
:1005CC00202D20D0402D1ED0802D1CD0B5F5807F45
:1005DC0019D0B5F5007F16D0B5F5806F13D0B5F5F1
:1005EC00006F10D0B5F5805F0DD0B5F5005F0AD067
:1005FC00B5F5804F07D0B5F5004F04D009484FF43E
:10060C00C77100F05DFA012E04D9064840F28F1133
:10061C0000F056FA0EB1256170BD656170BD00BF6A
:10062C00000801401C19000810B4294B5B6803F04A
:10063C000C03042B05D0082B06D013BB254B0360F1
:10064C0021E0244B03601EE0214A53685268C3F337
:10065C008343023312F4803F04D11F4A02FB03F39D
:10066C00036010E01A4A526812F4003F04D01A4A90
:10067C0002FB03F3036006E0164A02FB03F303607C
:10068C0001E0144B0360124A5368C3F30313134C79
:10069C00E15CC9B20368CB4043605168C1F30221ED
:1006AC00615CC9B223FA01F181605168C1F3C221C6
:1006BC00615CC9B2CB40C3605268C2F38132084955
:1006CC008A5CD2B2B3FBF2F303615DF8044B704762
:1006DC000010024000127A0000093D0008000020C2
:1006EC000400002038B504460D460E4B034003B9F8
:1006FC0020B90D4840F24A4100F0E2F9012D04D92D
:10070C00094840F24B4100F0DBF925B1074B9A69DF
:10071C0014439C6138BD054A936923EA040494612F
:10072C0038BD00BF0200C0FF501900080010024085
:10073C0038B504460D460E4B184200D120B90D4871
:10074C0040F2694100F0BCF9012D04D9094840F28E
:10075C006A4100F0B5F925B1074BDA691443DC6145
:10076C0038BD054AD36923EA0404D46138BD00BFFF
:10077C0000360181501900080010024030B587B0D6
:10078C0004460D46654B984213D0A3F5744398422A
:10079C000FD003F5806398420BD003F58063984229
:1007AC0007D003F58063984203D05D48B82100F070
:1007BC0087F92B68013B5B4A934203D95848B9210E
:1007CC0000F07EF9AB8833B1B3F5805F03D05448A9
:1007DC00BA2100F075F9EB8863B1B3F5805F09D0ED
:1007EC00B3F5005F06D0B3F5405F03D04C48BB2196
:1007FC0000F066F92B894BB1B3F5806F06D0B3F5D9
:10080C00C06F03D04648BC2100F05AF96A8922F027
:10081C000C039BB203B91AB94148BD2100F050F941
:10082C00AB8963B1B3F5807F09D0B3F5007F06D0F7
:10083C00B3F5407F03D03A48BE2100F041F9AB89B3
:10084C0073B1364B9C420BD0A3F574439C4207D03A
:10085C0003F580639C4203D03148C22100F030F98B
:10086C00238A23F440531B041B0CEA881343238272
:10087C00A3899BB223F4B05323F00C01A8882A89D6
:10088C006B89024313430B43A381A38A23F4407364
:10089C001B041B0CAA891343A38201A8FFF7C4FEF7
:1008AC001E4B9C4201D1049B00E0039BA28912B217
:1008BC00002A08DA03EB830303EB8303296849005E
:1008CC00B3FBF1F107E003EB830303EB830329682C
:1008DC008900B3FBF1F1144BA3FB0123580905016B
:1008EC00642300FB1313A28912B2002A09DAD9007F
:1008FC0032310D4AA2FB0131C1F3421242EA050327
:10090C0007E01B013233084AA2FB0323C3F3431352
:10091C002B439BB2238107B030BD00BF0038014090
:10092C00801900081FAA44001F85EB514FF4165381
:10093C00036000238380C38003810C224281838166
:10094C00704700BF38B504460D46164B984214D07C
:10095C00A3F57443984210D003F5806398420CD0F1
:10096C0003F58063984208D003F58063984204D065
:10097C000D484FF4B17100F0A3F8012D04D90A48C9
:10098C0040F2631100F09CF82DB1A3899BB243F4A3
:10099C000053A38138BDA38923F400531B041B0C03
:1009AC00A38138BD003801408019000838B50546D0
:1009BC000C46264B984214D0A3F57443984210D0A1
:1009CC0003F5806398420CD003F58063984208D0FD
:1009DC0003F58063984204D01D4840F2863100F044
:1009EC006FF8012C18D0802C16D0402C14D0202C51
:1009FC0012D0102C10D0B4F5807F0DD0B4F5007F40
:100A0C000AD0082C08D0042C06D0022C04D0104894
:100A1C0040F2873100F054F8B4F5007F0FD10B4B46
:100A2C009D420CD0A3F574439D4208D003F580631E
:100A3C009D4204D0064840F28B3100F041F82B88DF
:100A4C001C4201D0012038BD002038BD00380140C7
:100A5C0080190008FEE700BF08B5034800F056F8FF
:100A6C000120FFF7F7FF00BFB419000808B50D4BC4
:100A7C001B6813B90C4A0B4B1A600A4B1A68C31C3F
:100A8C0023F00303134409498B4206D900F008FBF9
:100A9C000C2303604FF0FF3008BD02490B60104679
:100AAC0008BD00BFA00000203C010020004C00202D
:100ABC0001230360014B0B60704700BF180000203E
:100ACC0008B503460A460348194600F005F8FFF737
:100ADC00C3FF00BF081A00080FB400B583B004AB05
:100AEC0053F8042B01930848802100F011FB011EE0
:100AFC0003DD054800F04CF80146084603B05DF8EC
:100B0C0004EB04B0704700BFA800002010B50446E9
:100B1C0000F0CCFA0146204600F03AF802480121D8
:100B2C0000F036F810BD00BFF81A00082DE9F043AC
:100B3C0085B004460F46435C13BB0425284621466A
:100B4C00ABBE04461FE03546102E28BF10250023EF
:100B5C0006E014F8011B04AA1A4402F8101C013315
:100B6C00AB42F6D304AA1344002203F8102CE94636
:100B7C004FF0040840464946ABBE8046761B00E069
:100B8C000E46002EDFD1384605B0BDE8F08300BF1D
:100B9C0008B5FFF7CBFF08BD08B500F0FBF8024B1A
:100BAC00024A9A6008BD00BF00ED00E0000000089A
:100BBC0008B500F017F908BDF8B504460D46174600
:100BCC001E462648FFF788FF25482168FFF784FF5B
:100BDC0024486168FFF780FF2348A168FFF77CFF7A
:100BEC002248E168FFF778FF21482169FFF774FF7D
:100BFC0020486169FFF770FF1F48A169FFF76CFF80
:100C0C001E48E169FFF768FF1D48FFF765FF1D48A7
:100C1C002946FFF761FF1C4CE16A1C48FFF75CFF9B
:100C2C00216B1B48FFF758FFE16B1A48FFF754FF85
:100C3C0015F0800F03D018483946FFF74DFF15F417
:100C4C00004F03D015483146FFF746FF1448FFF715
:100C5C0043FF14480699FFF73FFFF8BD601A0008E0
:100C6C00701A0008801A0008901A0008A01A0008D0
:100C7C00B01A0008C01A0008D01A0008E01A0008C0
:100C8C00F01A0008FC1A000800ED00E00C1B00082C
:100C9C001C1B00082C1B00083C1B00084C1B0008EC
:100CAC005C1B0008641B000883691A888A4207D100
:100CBC000268033A012A05D8023383610120704788
:100CCC00002070470020704782B0002301930093EE
:100CDC002C4A136843F4803313602A4B1B6803F4CB
:100CEC0000330093019B01330193009B1BB9019BC3
:100CFC00B3F5A06FF1D1234B1B6813F4003F02D066
:100D0C000123009301E000230093009B012B36D1BB
:100D1C001D4B1A6842F010021A601A6822F0030286
:100D2C001A601A6842F002021A60A3F580535A68DE
:100D3C005A605A685A605A6842F480625A605A681B
:100D4C0022F47C125A605A6842F4E8125A601A680B
:100D5C0042F080721A600B4B1B6813F0007FFAD0C4
:100D6C00084B5A6822F003025A605A6842F0020299
:100D7C005A60044B5B6803F00C03082BF9D102B0EA
:100D8C00704700BF001002400020024008B5FFF77A
:100D9C009BFF08BD08B5104B1A6842F001021A609F
:100DAC0059680E4A0A405A601A6822F0847222F47A
:100DBC0080321A601A6822F480221A605A6822F46F
:100DCC00FE025A604FF41F029A60FFF7DFFF4FF0EC
:100DDC000062034B9A6008BD001002400000FFF84F
:100DEC0000ED00E01F4B5B6803F00C03042B06D0F6
:100DFC00082B08D03BBB1C4A1C4B1A6026E01A4A35
:100E0C001A4B1A6022E0174A53685268C3F38343A3
:100E1C00023312F4803F05D1154A02FB03F3134A47
:100E2C00136013E00F4A526812F4003F05D0104AC9
:100E3C0002FB03F30D4A136008E00B4A02FB03F3B9
:100E4C000A4A136002E0084A084B1A60054B5B68BB
:100E5C00C3F30313074AD25CD2B204490B68D340E4
:100E6C000B6070470010024000127A003000002026
:100E7C0000093D0020000020034B1860024B1B684A
:100E8C00002BFBD1704700BF28010020034B1B68CF
:100E9C001BB1024A1368013B136070472801002004
:100EAC0038B504460D460C4B98420BD0A3F5744351
:100EBC00984207D003F58063984203D00748282155
:100ECC00FFF7FEFD20468021FFF770FD0028F9D0CA
:100EDC00EDB2A580002038BD00380140A81B0008E9
:100EEC0010B504460B4B98420BD0A3F574439842B3
:100EFC0007D003F58063984203D007483121FFF7F0
:100F0C00DFFD20462021FFF751FD0028F9D0A088F5
:100F1C00C0B210BD00380140A81B000870B586B0E7
:100F2C005548FFF7F3FD554E55483168FFF7D4FD92
:100F3C0014200121FFF7D6FB05A8FFF7AFFA2023F9
:100F4C00ADF8143010238DF8173002238DF81630BD
:100F5C004C4C204605A9FFF70BFA4FF40053ADF8A3
:100F6C00143004258DF81750474805A9FFF700FAEF
:100F7C004FF400300121FFF7DBFBADF814501823C0
:100F8C008DF8173003238DF81630204605A9FFF78E
:100F9C00EFF90823ADF814308DF81750204605A949
:100FAC00FFF7E6F90DEB0500FFF7C0FC4FF4165305
:100FBC0001930C23ADF80E30A4F5444420460DEB00
:100FCC000501FFF7DBFB20460121FFF7BBFC336873
:100FDC002E4AA2FB03239B09013BB3F1807F09D26C
:100FEC002B4A5360F0212B4B83F823100023936082
:100FFC000723136000238DF80330274C20462E2145
:10100C00FFF74EFF20460A21FFF74AFF1E484FF418
:10101C000051FFF74BFA28B92048FFF75DFD01237B
:10102C008DF803309DF8033013F0FF0F1FD01A4CCE
:10103C0020463E21FFF734FF2046FFF751FFC5B293
:10104C0020460A21FFF72CFF20462E21FFF728FF10
:10105C0020460A21FFF724FF6AB20A482021303AC1
:10106C0018BF0122FFF77EFA00238DF803304FF4EE
:10107C00FA70FFF701FFC9E7B81B00083000002029
:10108C00CC1B00080008014000100140D34D621039
:10109C0010E000E000ED00E000440040E41B00081C
:1010AC00014B1868704700BF94000020034613F8EA
:1010BC00012B002AFBD1181A0138704730B5141EC9
:1010CC009BB0054604DA8B2303604FF0FF301CE025
:1010DC004FF40272ADF80C200CBF224604F1FF3223
:1010EC00029205924FF6FF7200910491ADF80E201A
:1010FC0069461A461E9B00F075F8431CBCBF8B2337
:10110C002B6014B1009B00221A701BB030BD000084
:10111C0073B506460D4614460093044B31461868C9
:10112C002A462346FFF7CAFF02B070BD9400002088
:10113C002DE9F0478E688246B3420C46904699469C
:10114C0040D38A8912F4906F3AD02568096902233A
:10115C006F1A656905EB450595FBF3F57B1C4B4454
:10116C009D4238BF1D4653050FD5294600F03AFB6A
:10117C00064698B121693A4600F0CAFAA38923F4CD
:10118C00906343F08003A38113E02A4600F080FBB8
:10119C00064670B95046216900F0E0FA0C23CAF8F3
:1011AC000030A3894FF0FF3043F04003A381BDE82A
:1011BC00F08726613E4426604E466561ED1BA560B6
:1011CC00B14500D24E4632462068414600F0ABFA9B
:1011DC00A36800209B1BA36023681E442660BDE807
:1011EC00F08700002DE9F0439DB003938B890646F0
:1011FC001C060D4690460CD50B6953B9402100F0E6
:10120C00F1FA2860286110B90C233360CCE040233C
:10121C006B610023099320238DF8293030238DF83E
:10122C002A3043461C4613F8012B1AB9B4EB0809B3
:10123C000FD002E0252AF5D1F8E730462946424680
:10124C004B46FFF775FF013000F0A980099B4B441A
:10125C0009932378002B00F0A28000234FF0FF327B
:10126C0004930793059206938DF853301A9304F167
:10127C0001084446DFF8489121784846052200F0E1
:10128C0039FA08F10108049B30B1C9EB00000122C6
:10129C00824013430493ECE7D80644BF20228DF818
:1012AC005320190744BF2B228DF8532022782A2A69
:1012BC0002D0079923460EE0039A0134111D1268DF
:1012CC000391002ABBBF524243F0020307920792DC
:1012DC00B8BF04930AE01C4622780133303A092A3D
:1012EC0003D80A2000FB0121F5E7079123782E2B68
:1012FC001AD163782A2B0AD1039B02341A1D1B685E
:10130C000392002BB8BF4FF0FF3305930CE0611C28
:10131C0000220C4623780131303B092B03D80A20DC
:10132C0000FB0232F5E70592DFF898802178404601
:10133C00032200F0DFF938B1049AC8EB0000402317
:10134C00834013430493013421781A48062204F194
:10135C0001088DF8281000F0CDF988B1164B33B97F
:10136C00039B073323F007030833039313E003AB0A
:10137C000093304604A92A46104BAFF3008007E0D7
:10138C0003AB0093304604A92A460C4B00F092F8AC
:10139C00421C074603D0099B3B44099341E7AB89A8
:1013AC005B0601D4099801E04FF0FF301DB0BDE899
:1013BC00F08300BF041C0008000000003D11000871
:1013CC00FA1B0008001C00082DE9F84391461F4643
:1013DC008A680B6906469342B8BF1346C9F80030B9
:1013EC0091F843200C46DDF8208012B10133C9F886
:1013FC0000302368990642BFD9F800300233C9F88F
:10140C000030256815F006051CD094F8433022688E
:10141C00003318BF012392061FD5E118302081F844
:10142C0043005A1C94F845102244023382F84310AE
:10143C0013E03046394604F119020123C04701304C
:10144C0007D00135E368D9F800209B1A9D42F0DBE8
:10145C00DBE74FF0FF30BDE8F8833046394604F146
:10146C004302C0470130F4D02268D9F80050E36839
:10147C0002F00602042A08BF5D1B2269A3680CBF98
:10148C0025EAE57500259342C4BF9B1AED184FF071
:10149C000009A9450ADA3046394604F11A0201233B
:1014AC00C0470130D5D009F10109F2E70020BDE8B1
:1014BC00F88300002DE9FF410C461746227E984622
:1014CC006E2A06460A9B01F1430100F0B08012D847
:1014DC00632A23D00AD8002A00F0BD80582A40F095
:1014EC00CC8084F84520DFF804E257E0642A1ED053
:1014FC00692A1CD0C1E0732A00F0B18009D86F2A88
:10150C002ED0702A40F0B980226842F0200222606E
:10151C003FE0752A24D0782A3BD0AEE01A6804F15B
:10152C004205111D1960136884F84230A9E0206847
:10153C001A6810F0800F02D0101D186008E010F02F
:10154C00400F02F10400186002D0B2F9003000E044
:10155C001368002B3EDA2D225B4284F8432039E0DD
:10156C0020681A6810F0800F02D0101D186007E078
:10157C0010F0400F02F10400186001D0138800E055
:10158C001368227EDFF864E16F2A0CBF08220A225E
:10159C001CE07822DFF858E184F8452022681868AE
:1015AC0012F0800F00F104051D6003D1550601D522
:1015BC00038800E00368D00744BF42F02002226099
:1015CC001BB9226822F0200222601022002084F82D
:1015DC00430002E0DFF814E10A226568002DA8BF81
:1015EC002068A560A4BF20F00400206003B965B199
:1015FC000D46B3FBF2F002FB10331EF8033005F876
:10160C00013D03460028F4D100E00D46082A0BD119
:10161C002368DA0708D5236962689A42DEBF302353
:10162C0005F8013C05F1FF35491B21612EE02568C9
:10163C001A6815F0800F606903D0151D1D601368C2
:10164C0008E015F0400F02F104051D60136801D08D
:10165C00188000E01860002323610D4616E01A681C
:10166C00111D1960156800212846626800F042F8C7
:10167C0008B1401B6060636804E004F1420584F823
:10168C00422001232361002384F84330CDF80080ED
:10169C003046214603AA3B46FFF796FE013002D1A5
:1016AC004FF0FF301FE0304639462A462369C047C9
:1016BC000130F5D023689B0705D4E068039B984262
:1016CC00B8BF18460FE00025E368039A9B1A9D42A9
:1016DC00F3DA3046394604F119020123C0470130D0
:1016EC00DED00135F0E704B0BDE8F0810B1C00083A
:1016FC001C1C000810B5C9B202449042034605D028
:10170C001C7801308C42F8D1184610BD002010BD59
:10171C0010B5431E0A44914204D011F8014B03F852
:10172C00014FF8E710BD814210B501EB020301D364
:10173C00421E0BE09842FBD28118D21AD34204D03D
:10174C0013F8014D01F8014DF8E710BD994204D092
:10175C0011F8014B02F8014FF8E710BD30B5002924
:10176C003CD051F8042C0B1F1D49002AB8BF9B1804
:10177C000A680C4612B95A600B6030BD93420DD208
:10178C0019685818904201BF5A5852181A6042688A
:10179C0023605A6030BD994203D80A46516800292B
:1017AC00F9D1146815199D420AD11B682344D0182D
:1017BC008842136012D10868034413604B680CE034
:1017CC0002D90C23036030BD1C681819884201BF74
:1017DC0008684968001918605960536030BD00BF33
:1017EC003001002070B5CC1C24F0030408340C2C00
:1017FC0038BF0C24002C064603DA0C23336000207F
:10180C0070BD8C42F9D3204A136810461946A1B119
:10181C000A68121B0ED40B2A03D90A608B188C5041
:10182C001FE08B420BBF5A684A6802605A6018BFAF
:10183C000B4616E00B464968E9E7144D2B681BB9BB
:10184C00304600F04BF828603046214600F046F850
:10185C00421C0346D1D0C51C25F0030585420AD194
:10186C001C6003F10B001A1D20F00700821A0AD02D
:10187C005142995070BD3046E91A00F02FF80130F2
:10188C00BBD02B46ECE770BD300100202C010020B2
:10189C00F8B5074615460E4621B91146BDE8F84085
:1018AC00FFF7A0BF1AB9FFF759FF2846F8BD00F0A3
:1018BC0025F8A8420ED238462946FFF793FF044676
:1018CC0050B131462A46FFF723FF38463146FFF721
:1018DC0045FF01E03046F8BD2046F8BD38B5064C52
:1018EC000023054608462360FFF7C0F8431C02D1CD
:1018FC00236803B12B6038BD3401002051F8040C6F
:10190C000028BEBF091851F8043CC01804387047B1
:10191C002E2E2F73797374656D2F7372632F7374FE
:10192C006D333266312D7374647065726970682F13
:10193C0073746D3332663130785F6770696F2E6304
:10194C00000000002E2E2F73797374656D2F737247
:10195C00632F73746D333266312D737464706572DA
:10196C006970682F73746D3332663130785F7263CF
:10197C00632E63002E2E2F73797374656D2F737223
:10198C00632F73746D333266312D737464706572AA
:10199C006970682F73746D3332663130785F75738C
:1019AC006172742E6300000061626F727428292CBE
:1019BC002065786974696E672E2E2E002C20667552
:1019CC006E6374696F6E3A2000000000617373657A
:1019DC007274696F6E2022257322206661696C65B2
:1019EC00643A2066696C6520222573222C206C6970
:1019FC006E65202564257325730A00006173736579
:101A0C0072745F706172616D2829206661696C6502
:101A1C00643A2066696C6520222573222C206C693F
:101A2C006E652025640A00006D61696E286172671D
:101A3C00633D25642C20617267763D5B00000000DD
:101A4C002C20000022257322000000005D293B0A97
:101A5C0000000000537461636B206672616D653A1F
:101A6C000A000000205230203D2020253038580A32
:101A7C0000000000205231203D2020253038580A2B
:101A8C0000000000205232203D2020253038580A1A
:101A9C0000000000205233203D2020253038580A09
:101AAC000000000020523132203D20253038580AE9
:101ABC0000000000204C52203D2020253038580AD0
:101ACC0000000000205043203D2020253038580ACB
:101ADC000000000020505352203D20253038580A79
:101AEC00000000004653522F4641523A0A000000B3
:101AFC002043465352203D2020253038580A000000
:101B0C002048465352203D2020253038580A0000EA
:101B1C002044465352203D2020253038580A0000DE
:101B2C002041465352203D2020253038580A0000D1
:101B3C00204D4D464152203D20253038580A00009A
:101B4C002042464152203D2020253038580A0000C2
:101B5C004D6973630A000000204C522F4558435FB7
:101B6C0052455455524E3D20253038580A0000003D
:101B7C005B486172644661756C745D0A000000001C
:101B8C005B4275734661756C745D0A005B557361DD
:101B9C0067654661756C745D0A0000002E2E2F730C
:101BAC0072632F6D61696E2E6300000048656C6C6A
:101BBC006F2041524D20576F726C64210000000061
:101BCC0053797374656D20636C6F636B3A20257564
:101BDC0020487A0A00000000627574746F6E2070E1
:101BEC00726573736564210A000000004300232DA5
:101BFC00302B2000686C4C0065666745464700300A
:101C0C003132333435363738394142434445460056
:101C1C003031323334353637383961626364656656
:011C2C0000B7
:101C30007856341202040608000000000102030472
:101C40000102030406070809A400002000000000A8
:101C5000000000000000000001020304060708095C
:101C600000A24A0400000000000000000000000084
:101C70000000000000000000000000000000000064
:101C800000000000F81B0008000000000000000039
:101C90000000000000000000000000000000000044
:101CA0000000000000000000000000000000000034
:101CB0000000000000000000000000000000000024
:0C1CC00000000000340000203254769830
:040000050800010DE1
:00000001FF
